{
  "_format": "hh-sol-artifact-1",
  "contractName": "AgriProcure",
  "sourceName": "contracts/AgriProcure.sol",
  "abi": [
    {
      "inputs": [],
      "stateMutability": "nonpayable",
      "type": "constructor"
    },
    {
      "anonymous": false,
      "inputs": [
        {
          "indexed": true,
          "internalType": "uint256",
          "name": "id",
          "type": "uint256"
        },
        {
          "indexed": true,
          "internalType": "address",
          "name": "farmer",
          "type": "address"
        },
        {
          "indexed": false,
          "internalType": "string",
          "name": "crop",
          "type": "string"
        }
      ],
      "name": "CropListed",
      "type": "event"
    },
    {
      "anonymous": false,
      "inputs": [
        {
          "indexed": true,
          "internalType": "uint256",
          "name": "id",
          "type": "uint256"
        },
        {
          "indexed": true,
          "internalType": "address",
          "name": "bidder",
          "type": "address"
        },
        {
          "indexed": false,
          "internalType": "uint256",
          "name": "amount",
          "type": "uint256"
        }
      ],
      "name": "EscrowLocked",
      "type": "event"
    },
    {
      "anonymous": false,
      "inputs": [
        {
          "indexed": true,
          "internalType": "uint256",
          "name": "id",
          "type": "uint256"
        },
        {
          "indexed": true,
          "internalType": "address",
          "name": "bidder",
          "type": "address"
        },
        {
          "indexed": false,
          "internalType": "uint256",
          "name": "amount",
          "type": "uint256"
        }
      ],
      "name": "NewBid",
      "type": "event"
    },
    {
      "anonymous": false,
      "inputs": [
        {
          "indexed": true,
          "internalType": "uint256",
          "name": "id",
          "type": "uint256"
        },
        {
          "indexed": true,
          "internalType": "address",
          "name": "farmer",
          "type": "address"
        },
        {
          "indexed": false,
          "internalType": "uint256",
          "name": "amount",
          "type": "uint256"
        }
      ],
      "name": "PaymentReleased",
      "type": "event"
    },
    {
      "anonymous": false,
      "inputs": [
        {
          "indexed": true,
          "internalType": "uint256",
          "name": "id",
          "type": "uint256"
        },
        {
          "indexed": true,
          "internalType": "address",
          "name": "officer",
          "type": "address"
        },
        {
          "indexed": false,
          "internalType": "uint256",
          "name": "quantity",
          "type": "uint256"
        },
        {
          "indexed": false,
          "internalType": "enum AgriProcure.Grade",
          "name": "grade",
          "type": "uint8"
        }
      ],
      "name": "ProduceVerified",
      "type": "event"
    },
    {
      "inputs": [
        {
          "internalType": "address",
          "name": "",
          "type": "address"
        }
      ],
      "name": "buyerReputation",
      "outputs": [
        {
          "internalType": "uint256",
          "name": "",
          "type": "uint256"
        }
      ],
      "stateMutability": "view",
      "type": "function"
    },
    {
      "inputs": [
        {
          "internalType": "uint256",
          "name": "_listingId",
          "type": "uint256"
        }
      ],
      "name": "confirmDelivery",
      "outputs": [],
      "stateMutability": "nonpayable",
      "type": "function"
    },
    {
      "inputs": [
        {
          "internalType": "uint256",
          "name": "_listingId",
          "type": "uint256"
        }
      ],
      "name": "depositEscrow",
      "outputs": [],
      "stateMutability": "payable",
      "type": "function"
    },
    {
      "inputs": [
        {
          "internalType": "address",
          "name": "",
          "type": "address"
        }
      ],
      "name": "farmerReputation",
      "outputs": [
        {
          "internalType": "uint256",
          "name": "",
          "type": "uint256"
        }
      ],
      "stateMutability": "view",
      "type": "function"
    },
    {
      "inputs": [
        {
          "internalType": "string",
          "name": "_crop",
          "type": "string"
        },
        {
          "internalType": "uint256",
          "name": "_expectedQuantity",
          "type": "uint256"
        },
        {
          "internalType": "uint256",
          "name": "_minPrice",
          "type": "uint256"
        }
      ],
      "name": "listCrop",
      "outputs": [],
      "stateMutability": "nonpayable",
      "type": "function"
    },
    {
      "inputs": [],
      "name": "listingCount",
      "outputs": [
        {
          "internalType": "uint256",
          "name": "",
          "type": "uint256"
        }
      ],
      "stateMutability": "view",
      "type": "function"
    },
    {
      "inputs": [
        {
          "internalType": "uint256",
          "name": "",
          "type": "uint256"
        }
      ],
      "name": "listings",
      "outputs": [
        {
          "internalType": "uint256",
          "name": "id",
          "type": "uint256"
        },
        {
          "internalType": "address",
          "name": "farmer",
          "type": "address"
        },
        {
          "internalType": "string",
          "name": "cropName",
          "type": "string"
        },
        {
          "internalType": "uint256",
          "name": "quantity",
          "type": "uint256"
        },
        {
          "internalType": "enum AgriProcure.Grade",
          "name": "quality",
          "type": "uint8"
        },
        {
          "internalType": "uint256",
          "name": "minPrice",
          "type": "uint256"
        },
        {
          "internalType": "uint256",
          "name": "highestBid",
          "type": "uint256"
        },
        {
          "internalType": "address",
          "name": "highestBidder",
          "type": "address"
        },
        {
          "internalType": "enum AgriProcure.Status",
          "name": "status",
          "type": "uint8"
        },
        {
          "internalType": "uint256",
          "name": "escrowAmount",
          "type": "uint256"
        },
        {
          "internalType": "bool",
          "name": "paymentReleased",
          "type": "bool"
        }
      ],
      "stateMutability": "view",
      "type": "function"
    },
    {
      "inputs": [],
      "name": "officer",
      "outputs": [
        {
          "internalType": "address",
          "name": "",
          "type": "address"
        }
      ],
      "stateMutability": "view",
      "type": "function"
    },
    {
      "inputs": [
        {
          "internalType": "uint256",
          "name": "_listingId",
          "type": "uint256"
        },
        {
          "internalType": "uint256",
          "name": "_bidPerQuintal",
          "type": "uint256"
        }
      ],
      "name": "placeBid",
      "outputs": [],
      "stateMutability": "nonpayable",
      "type": "function"
    },
    {
      "inputs": [
        {
          "internalType": "uint256",
          "name": "_listingId",
          "type": "uint256"
        },
        {
          "internalType": "uint256",
          "name": "_verifiedQuantity",
          "type": "uint256"
        },
        {
          "internalType": "enum AgriProcure.Grade",
          "name": "_grade",
          "type": "uint8"
        }
      ],
      "name": "verifyProduce",
      "outputs": [],
      "stateMutability": "nonpayable",
      "type": "function"
    }
  ],
  "bytecode": "0x608060405234801561001057600080fd5b5033600260006101000a81548173ffffffffffffffffffffffffffffffffffffffff021916908373ffffffffffffffffffffffffffffffffffffffff160217905550611fc9806100616000396000f3fe6080604052600436106100915760003560e01c8063a9b07c2611610059578063a9b07c261461018b578063bc685ce0146101b6578063cb991efe146101e1578063de74e57b146101fd578063fd84cb971461024457610091565b806301abcad0146100965780631601a868146100d35780631c0cb8be1461011057806357c90de5146101395780637a020f1114610162575b600080fd5b3480156100a257600080fd5b506100bd60048036038101906100b89190611111565b61026d565b6040516100ca9190611157565b60405180910390f35b3480156100df57600080fd5b506100fa60048036038101906100f59190611111565b610285565b6040516101079190611157565b60405180910390f35b34801561011c57600080fd5b50610137600480360381019061013291906112e4565b61029d565b005b34801561014557600080fd5b50610160600480360381019061015b9190611353565b6105ad565b005b34801561016e57600080fd5b50610189600480360381019061018491906113b8565b610769565b005b34801561019757600080fd5b506101a061096e565b6040516101ad9190611157565b60405180910390f35b3480156101c257600080fd5b506101cb610974565b6040516101d8919061141a565b60405180910390f35b6101fb60048036038101906101f69190611435565b61099a565b005b34801561020957600080fd5b50610224600480360381019061021f9190611435565b610b99565b60405161023b9b9a999897969594939291906115bb565b60405180910390f35b34801561025057600080fd5b5061026b60048036038101906102669190611435565b610ce2565b005b60046020528060005260406000206000915090505481565b60036020528060005260406000206000915090505481565b6000600360003373ffffffffffffffffffffffffffffffffffffffff1673ffffffffffffffffffffffffffffffffffffffff168152602001908152602001600020540361032a576032600360003373ffffffffffffffffffffffffffffffffffffffff1673ffffffffffffffffffffffffffffffffffffffff168152602001908152602001600020819055505b60008081548092919061033c9061169c565b919050555060405180610160016040528060005481526020013373ffffffffffffffffffffffffffffffffffffffff16815260200184815260200183815260200160026003811115610391576103906114e1565b5b815260200182815260200160008152602001600073ffffffffffffffffffffffffffffffffffffffff168152602001600060058111156103d4576103d36114e1565b5b8152602001600081526020016000151581525060016000805481526020019081526020016000206000820151816000015560208201518160010160006101000a81548173ffffffffffffffffffffffffffffffffffffffff021916908373ffffffffffffffffffffffffffffffffffffffff160217905550604082015181600201908161046191906118f0565b506060820151816003015560808201518160040160006101000a81548160ff02191690836003811115610497576104966114e1565b5b021790555060a0820151816005015560c0820151816006015560e08201518160070160006101000a81548173ffffffffffffffffffffffffffffffffffffffff021916908373ffffffffffffffffffffffffffffffffffffffff1602179055506101008201518160070160146101000a81548160ff02191690836005811115610523576105226114e1565b5b021790555061012082015181600801556101408201518160090160006101000a81548160ff0219169083151502179055509050503373ffffffffffffffffffffffffffffffffffffffff166000547f3adfc6c9e1a970aaaf932190219fc3fe13a60018d9c780c631059cafa737e4c2856040516105a091906119c2565b60405180910390a3505050565b6000600160008481526020019081526020016000209050600260058111156105d8576105d76114e1565b5b8160070160149054906101000a900460ff1660058111156105fc576105fb6114e1565b5b1461063c576040517f08c379a000000000000000000000000000000000000000000000000000000000815260040161063390611a30565b60405180910390fd5b8060050154821015610683576040517f08c379a000000000000000000000000000000000000000000000000000000000815260040161067a90611a9c565b60405180910390fd5b806006015482116106c9576040517f08c379a00000000000000000000000000000000000000000000000000000000081526004016106c090611b08565b60405180910390fd5b818160060181905550338160070160006101000a81548173ffffffffffffffffffffffffffffffffffffffff021916908373ffffffffffffffffffffffffffffffffffffffff1602179055503373ffffffffffffffffffffffffffffffffffffffff16837f558a0d5d5468d74b0db24c74eb348b42271c2ebb4c9e953ced38aaed95fa43618460405161075c9190611157565b60405180910390a3505050565b600260009054906101000a900473ffffffffffffffffffffffffffffffffffffffff1673ffffffffffffffffffffffffffffffffffffffff163373ffffffffffffffffffffffffffffffffffffffff16146107f9576040517f08c379a00000000000000000000000000000000000000000000000000000000081526004016107f090611b74565b60405180910390fd5b600060016000858152602001908152602001600020905060006005811115610824576108236114e1565b5b8160070160149054906101000a900460ff166005811115610848576108476114e1565b5b14610888576040517f08c379a000000000000000000000000000000000000000000000000000000000815260040161087f90611c06565b60405180910390fd5b828160030181905550818160040160006101000a81548160ff021916908360038111156108b8576108b76114e1565b5b021790555060018160070160146101000a81548160ff021916908360058111156108e5576108e46114e1565b5b021790555060028160070160146101000a81548160ff02191690836005811115610912576109116114e1565b5b02179055503373ffffffffffffffffffffffffffffffffffffffff16847f7291162f462c3bd730866ffd8e7bb177ed38b418ee07ddca74fe8d6fa2d02afc8585604051610960929190611c26565b60405180910390a350505050565b60005481565b600260009054906101000a900473ffffffffffffffffffffffffffffffffffffffff1681565b60006001600083815260200190815260200160002090508060070160009054906101000a900473ffffffffffffffffffffffffffffffffffffffff1673ffffffffffffffffffffffffffffffffffffffff163373ffffffffffffffffffffffffffffffffffffffff1614610a43576040517f08c379a0000000000000000000000000000000000000000000000000000000008152600401610a3a90611c9b565b60405180910390fd5b60026005811115610a5757610a566114e1565b5b8160070160149054906101000a900460ff166005811115610a7b57610a7a6114e1565b5b14610abb576040517f08c379a0000000000000000000000000000000000000000000000000000000008152600401610ab290611d07565b60405180910390fd5b80600301548160060154610acf9190611d27565b3414610b10576040517f08c379a0000000000000000000000000000000000000000000000000000000008152600401610b0790611db5565b60405180910390fd5b34816008018190555060038160070160146101000a81548160ff02191690836005811115610b4157610b406114e1565b5b02179055503373ffffffffffffffffffffffffffffffffffffffff16827f889a2da5bdc8bd852c0c055b1e77d1ca14f6af8703e360dad9a45d05676bb54b34604051610b8d9190611157565b60405180910390a35050565b60016020528060005260406000206000915090508060000154908060010160009054906101000a900473ffffffffffffffffffffffffffffffffffffffff1690806002018054610be890611713565b80601f0160208091040260200160405190810160405280929190818152602001828054610c1490611713565b8015610c615780601f10610c3657610100808354040283529160200191610c61565b820191906000526020600020905b815481529060010190602001808311610c4457829003601f168201915b5050505050908060030154908060040160009054906101000a900460ff16908060050154908060060154908060070160009054906101000a900473ffffffffffffffffffffffffffffffffffffffff16908060070160149054906101000a900460ff16908060080154908060090160009054906101000a900460ff1690508b565b60006001600083815260200190815260200160002090508060070160009054906101000a900473ffffffffffffffffffffffffffffffffffffffff1673ffffffffffffffffffffffffffffffffffffffff163373ffffffffffffffffffffffffffffffffffffffff1614610d8b576040517f08c379a0000000000000000000000000000000000000000000000000000000008152600401610d8290611e21565b60405180910390fd5b60036005811115610d9f57610d9e6114e1565b5b8160070160149054906101000a900460ff166005811115610dc357610dc26114e1565b5b14610e03576040517f08c379a0000000000000000000000000000000000000000000000000000000008152600401610dfa90611e8d565b60405180910390fd5b6000816008015490506000826008018190555060048260070160146101000a81548160ff02191690836005811115610e3e57610e3d6114e1565b5b021790555060018260090160006101000a81548160ff0219169083151502179055506005600360008460010160009054906101000a900473ffffffffffffffffffffffffffffffffffffffff1673ffffffffffffffffffffffffffffffffffffffff1673ffffffffffffffffffffffffffffffffffffffff1681526020019081526020016000206000828254610ed49190611ead565b925050819055506005600460008460070160009054906101000a900473ffffffffffffffffffffffffffffffffffffffff1673ffffffffffffffffffffffffffffffffffffffff1673ffffffffffffffffffffffffffffffffffffffff1681526020019081526020016000206000828254610f4f9190611ead565b9250508190555060008260010160009054906101000a900473ffffffffffffffffffffffffffffffffffffffff1673ffffffffffffffffffffffffffffffffffffffff1682604051610fa090611f12565b60006040518083038185875af1925050503d8060008114610fdd576040519150601f19603f3d011682016040523d82523d6000602084013e610fe2565b606091505b5050905080611026576040517f08c379a000000000000000000000000000000000000000000000000000000000815260040161101d90611f73565b60405180910390fd5b8260010160009054906101000a900473ffffffffffffffffffffffffffffffffffffffff1673ffffffffffffffffffffffffffffffffffffffff16847f21d71db5be59bb9fa133895586b7404307dd33fb93b16db09dc6f1d9d7d231b0846040516110919190611157565b60405180910390a350505050565b6000604051905090565b600080fd5b600080fd5b600073ffffffffffffffffffffffffffffffffffffffff82169050919050565b60006110de826110b3565b9050919050565b6110ee816110d3565b81146110f957600080fd5b50565b60008135905061110b816110e5565b92915050565b600060208284031215611127576111266110a9565b5b6000611135848285016110fc565b91505092915050565b6000819050919050565b6111518161113e565b82525050565b600060208201905061116c6000830184611148565b92915050565b600080fd5b600080fd5b6000601f19601f8301169050919050565b7f4e487b7100000000000000000000000000000000000000000000000000000000600052604160045260246000fd5b6111c58261117c565b810181811067ffffffffffffffff821117156111e4576111e361118d565b5b80604052505050565b60006111f761109f565b905061120382826111bc565b919050565b600067ffffffffffffffff8211156112235761122261118d565b5b61122c8261117c565b9050602081019050919050565b82818337600083830152505050565b600061125b61125684611208565b6111ed565b90508281526020810184848401111561127757611276611177565b5b611282848285611239565b509392505050565b600082601f83011261129f5761129e611172565b5b81356112af848260208601611248565b91505092915050565b6112c18161113e565b81146112cc57600080fd5b50565b6000813590506112de816112b8565b92915050565b6000806000606084860312156112fd576112fc6110a9565b5b600084013567ffffffffffffffff81111561131b5761131a6110ae565b5b6113278682870161128a565b9350506020611338868287016112cf565b9250506040611349868287016112cf565b9150509250925092565b6000806040838503121561136a576113696110a9565b5b6000611378858286016112cf565b9250506020611389858286016112cf565b9150509250929050565b600481106113a057600080fd5b50565b6000813590506113b281611393565b92915050565b6000806000606084860312156113d1576113d06110a9565b5b60006113df868287016112cf565b93505060206113f0868287016112cf565b9250506040611401868287016113a3565b9150509250925092565b611414816110d3565b82525050565b600060208201905061142f600083018461140b565b92915050565b60006020828403121561144b5761144a6110a9565b5b6000611459848285016112cf565b91505092915050565b600081519050919050565b600082825260208201905092915050565b60005b8381101561149c578082015181840152602081019050611481565b60008484015250505050565b60006114b382611462565b6114bd818561146d565b93506114cd81856020860161147e565b6114d68161117c565b840191505092915050565b7f4e487b7100000000000000000000000000000000000000000000000000000000600052602160045260246000fd5b60048110611521576115206114e1565b5b50565b600081905061153282611510565b919050565b600061154282611524565b9050919050565b61155281611537565b82525050565b60068110611569576115686114e1565b5b50565b600081905061157a82611558565b919050565b600061158a8261156c565b9050919050565b61159a8161157f565b82525050565b60008115159050919050565b6115b5816115a0565b82525050565b6000610160820190506115d1600083018e611148565b6115de602083018d61140b565b81810360408301526115f0818c6114a8565b90506115ff606083018b611148565b61160c608083018a611549565b61161960a0830189611148565b61162660c0830188611148565b61163360e083018761140b565b611641610100830186611591565b61164f610120830185611148565b61165d6101408301846115ac565b9c9b505050505050505050505050565b7f4e487b7100000000000000000000000000000000000000000000000000000000600052601160045260246000fd5b60006116a78261113e565b91507fffffffffffffffffffffffffffffffffffffffffffffffffffffffffffffffff82036116d9576116d861166d565b5b600182019050919050565b7f4e487b7100000000000000000000000000000000000000000000000000000000600052602260045260246000fd5b6000600282049050600182168061172b57607f821691505b60208210810361173e5761173d6116e4565b5b50919050565b60008190508160005260206000209050919050565b60006020601f8301049050919050565b600082821b905092915050565b6000600883026117a67fffffffffffffffffffffffffffffffffffffffffffffffffffffffffffffffff82611769565b6117b08683611769565b95508019841693508086168417925050509392505050565b6000819050919050565b60006117ed6117e86117e38461113e565b6117c8565b61113e565b9050919050565b6000819050919050565b611807836117d2565b61181b611813826117f4565b848454611776565b825550505050565b600090565b611830611823565b61183b8184846117fe565b505050565b5b8181101561185f57611854600082611828565b600181019050611841565b5050565b601f8211156118a45761187581611744565b61187e84611759565b8101602085101561188d578190505b6118a161189985611759565b830182611840565b50505b505050565b600082821c905092915050565b60006118c7600019846008026118a9565b1980831691505092915050565b60006118e083836118b6565b9150826002028217905092915050565b6118f982611462565b67ffffffffffffffff8111156119125761191161118d565b5b61191c8254611713565b611927828285611863565b600060209050601f83116001811461195a5760008415611948578287015190505b61195285826118d4565b8655506119ba565b601f19841661196886611744565b60005b828110156119905784890151825560018201915060208501945060208101905061196b565b868310156119ad57848901516119a9601f8916826118b6565b8355505b6001600288020188555050505b505050505050565b600060208201905081810360008301526119dc81846114a8565b905092915050565b7f42696464696e6720436c6f736564000000000000000000000000000000000000600082015250565b6000611a1a600e8361146d565b9150611a25826119e4565b602082019050919050565b60006020820190508181036000830152611a4981611a0d565b9050919050565b7f4269642042656c6f772041736b696e6720507269636521000000000000000000600082015250565b6000611a8660178361146d565b9150611a9182611a50565b602082019050919050565b60006020820190508181036000830152611ab581611a79565b9050919050565b7f42696420746f6f206c6f77000000000000000000000000000000000000000000600082015250565b6000611af2600b8361146d565b9150611afd82611abc565b602082019050919050565b60006020820190508181036000830152611b2181611ae5565b9050919050565b7f4f6e6c79204f6666696365720000000000000000000000000000000000000000600082015250565b6000611b5e600c8361146d565b9150611b6982611b28565b602082019050919050565b60006020820190508181036000830152611b8d81611b51565b9050919050565b7f416c7265616479205665726966696564206f7220496e76616c6964205374617460008201527f7573000000000000000000000000000000000000000000000000000000000000602082015250565b6000611bf060228361146d565b9150611bfb82611b94565b604082019050919050565b60006020820190508181036000830152611c1f81611be3565b9050919050565b6000604082019050611c3b6000830185611148565b611c486020830184611549565b9392505050565b7f4e6f742068696768657374206269646465720000000000000000000000000000600082015250565b6000611c8560128361146d565b9150611c9082611c4f565b602082019050919050565b60006020820190508181036000830152611cb481611c78565b9050919050565b7f4e6f7420696e2042696464696e67205068617365000000000000000000000000600082015250565b6000611cf160148361146d565b9150611cfc82611cbb565b602082019050919050565b60006020820190508181036000830152611d2081611ce4565b9050919050565b6000611d328261113e565b9150611d3d8361113e565b9250828202611d4b8161113e565b91508282048414831517611d6257611d6161166d565b5b5092915050565b7f496e636f727265637420416d6f756e7400000000000000000000000000000000600082015250565b6000611d9f60108361146d565b9150611daa82611d69565b602082019050919050565b60006020820190508181036000830152611dce81611d92565b9050919050565b7f4f6e6c792042757965722063616e20636f6e6669726d2064656c697665727900600082015250565b6000611e0b601f8361146d565b9150611e1682611dd5565b602082019050919050565b60006020820190508181036000830152611e3a81611dfe565b9050919050565b7f4e6f2066756e647320696e20457363726f770000000000000000000000000000600082015250565b6000611e7760128361146d565b9150611e8282611e41565b602082019050919050565b60006020820190508181036000830152611ea681611e6a565b9050919050565b6000611eb88261113e565b9150611ec38361113e565b9250828201905080821115611edb57611eda61166d565b5b92915050565b600081905092915050565b50565b6000611efc600083611ee1565b9150611f0782611eec565b600082019050919050565b6000611f1d82611eef565b9150819050919050565b7f5472616e73666572204661696c65640000000000000000000000000000000000600082015250565b6000611f5d600f8361146d565b9150611f6882611f27565b602082019050919050565b60006020820190508181036000830152611f8c81611f50565b905091905056fea2646970667358221220be7139ada4599763fca271641ca453d7ce88fca52d010927c90cf992e70da81464736f6c63430008140033",
  "linkReferences": {},
  "deployedLinkReferences": {}
}